:10000000B2C00000CFC00000CDC00000CBC00000D7
:10001000C9C00000C7C00000C5C00000C3C00000C8
:10002000C1C00000BFC00000BDC00000BBC00000D8
:10003000B9C00000B7C00000B5C00000B3C00000E8
:10004000B1C00000AFC00000ADC00000ABC00000F8
:10005000A9C00000A7C00000A5C00000F2C00000B9
:10006000A1C000009FC000009DC000009BC0000018
:1000700099C0000097C0000095C0000093C0000028
:1000800091C000008FC000008DC000008BC0000038
:1000900089C0000087C0000085C0000083C0000048
:1000A00081C000007FC000007DC000007BC0000058
:1000B00079C0000077C0000075C0000073C0000068
:1000C00071C000006FC000006DC000006BC0000078
:1000D00069C0000067C0000065C0000063C0000088
:1000E00061C0000007634236B79BD8A71A3968562B
:1000F00018AEBAAB558C1D3CB7CC5763BD6DEDFD4A
:10010000753EF6177231BF000000803F0800000006
:10011000BE922449123EABAAAA2ABECDCCCC4C3EFC
:1001200000000080BEABAAAAAA3E00000000BF00EB
:100130000000803F0000000000084178D3BB4387E7
:10014000D1133D190E3CC3BD4282AD2B3E68EC82FB
:1001500076BED98FE1A93E4C80EFFFBE01C4FF7F80
:100160003F000000000011241FBECFEFD1E2DEBF30
:10017000CDBF00E00CBF12E0A0E0B2E0E4EFF0E1A0
:1001800000E00BBF02C007900D92A232B107D9F771
:1001900022E0A2E2B2E001C01D92A432B207E1F770
:1001A000BAD1A6C72DCF1092C50087E68093C400B0
:1001B000E1ECF0E080818861808386E08093C2007A
:1001C00008958091C00087FFFCCF8091C6000895FC
:1001D00087B1806787B988B18F7888B92FEF81EEB2
:1001E00094E0215080409040E1F700C000008FEF84
:1001F00081B988E382B9449A44988FE39FE10197DB
:10020000F1F700C000008CE082B9449A44988FE373
:100210009FE10197F1F700C0000081E082B9449AA4
:1002200044988FE39FE10197F1F700C0000085B586
:10023000856085BD16BCEEE6F0E08081816080833C
:1002400008951F920F920FB60F9211240BB60F92C2
:100250002F938F939F93EF93FF932091230220314D
:10026000F9F446988091200282B91092230290916D
:10027000200280E498279093200280912202822716
:1002800080932202449A4498FF91EF919F918F911D
:100290002F910F900BBE0F900FBE0F901F901895CF
:1002A000469A809122022091230290E080509E4F36
:1002B000820F911DFC01808182B9449A80912302B2
:1002C0008F5F80932302DECFE9EBF0E080818160D5
:1002D000808386EC8093B800ECEBF0E08081846052
:1002E0008083089584EA8093BC008091BC0087FFDE
:1002F000FCCF08958093BB0084E88093BC0080917C
:10030000BC0087FFFCCF089584E98093BC0008956A
:1003100084EC8093BC008091BC0087FFFCCF80916F
:10032000BB00089584E88093BC008091BC0087FFE7
:10033000FCCF8091BB000895CF93C82FD3DF8EEE02
:10034000D9DF84EFD7DF8C2FD5DFDEDFCF910895A3
:10035000CF93DF93C7DF8EEECDDF86EFCBDFC2DF3B
:100360008FEEC8DFD5DFC82FDDDFD82FCDDF6C2FB4
:1003700070E090E080E0982F872F762F66276D0F32
:10038000711D811D911DDF91CF910895CF93DF9352
:10039000A9DF8EEEAFDF84EFADDF84E3ABDFB4DF48
:1003A00081EE94E00197F1F700C000009BDF8EEE34
:1003B000A1DF86EF9FDF96DF8FEE9CDFA9DFD82FCE
:1003C000A7DFC82FAFDFA0DF6C2F70E090E080E0E8
:1003D000982F872F762F66278D2B672F782F892FC1
:1003E0009927DF91CF910895A7E0B0E0E9EFF1E020
:1003F000E5C22C0177DF8EEE7DDF8AEA7BDF72DFDC
:100400008FEE78DF85DFA82E83DFB12CBA2CAA24EB
:10041000A80EB11C7DDFC82E7BDFD12CDC2CCC24B8
:10042000C80ED11C75DFE82E73DFF12CFE2CEE24F4
:10043000E80EF11C6DDF382E6BDF282E69DF898313
:1004400067DF8A8365DF8B8363DF8C8361DF082F3F
:100450005FDF10E0102F0027080F111D59DF8D837B
:1004600057DF3D81232F30E0F22FEE27E80FF11DFB
:10047000FF83EE834DDF882E4BDF912C982C882450
:10048000880E911C45DF682E43DF712C762C662484
:10049000680E711C3DDF8D8345DFF201B182A082C1
:1004A000D382C282F582E482232D30E0322F2227CC
:1004B000220E332E311C37822682F9812F2F30E015
:1004C000322F22279A81290F311DF201318720878F
:1004D000FB812F2F30E0322F22279C81290F311DE5
:1004E000F20133872287158704872E813F81378762
:1004F0002687918A808A738A628A9D81292F30E0BB
:10050000322F2227820F932F911D958B848BC2014E
:100510002796E2E16FC2A4E2B0E0E0E9F2E04EC269
:1005200057DED2DE40DE6E0127E1C20ED11C9E01F5
:10053000255E3F4FF6012E173F0709F0CBC103E0C0
:1005400010E0F12CE12CD6017D906D01B801012E57
:10055000000C880B990B78D39B01AC0160E070E034
:1005600080E291E460D44B015C01672D770C770B3E
:1005700060537109072E000C880B990B65D3A501F8
:100580009401EED34B015C01B701FF0C880B990B72
:100590005BD39B01AC01C501B40157D222D37B01CF
:1005A0000150110980F67894CE0101961DDF16EFF7
:1005B000C701FF0CAA0BBB0B89A39AA3ABA3BCA3D7
:1005C0008EE2BADE9FEFA3EFB1E09150A040B040C1
:1005D000E1F700C00000BCDE2B853C856B017C018F
:1005E000C21AD30AE108F108A7019601A985BA85C4
:1005F000D5D14B015C014FE0B594A79497948794B3
:100600004A95D1F76B897C89072E000C880B990BD2
:100610005BE0660F771F881F991F5A95D1F72D89C8
:100620003E89032E000C440B550B280D391D4A1D25
:100630005B1D98D1820E931EA41EB51E7501640128
:1006400028E0C20ED11CE11CF11C64E0F594E79493
:10065000D794C7946A95D1F780E092E09C8F8B8FF6
:100660001C01C701B6012AE030E040E050E07AD139
:1006700090E3C90E129FC00C1124D1011D96CC929B
:10068000B1E02B1A310869017A01EBEFF1E0E215D4
:10069000F30539F784E750DE8FEF9CE70197F1F718
:1006A00000C0000073DE6D8F7E8F8F8F98A390EA5D
:1006B000891A9FE0990AA108B108A5019401C50112
:1006C000B4011FD12B013C01FCE075946794579451
:1006D0004794FA95D1F7AD81BE816AD16B017C0157
:1006E000ADE0F594E794D794C794AA95D1F7AD857A
:1006F000BE85A30192015CD19C01552737FD509521
:10070000452F2C0D3D1D4E1D5F1D2E5F3F4F4F4F42
:100710005F4F02E055954795379527950A95D1F794
:1007200030584F4F5F4FAF81B88538D16B017C0196
:100730008FE0F694E794D794C7948A95D1F7AF8564
:10074000B889A301920134D12B013C019BE075943F
:100750006794579447949A95D1F7AB81BC81A501D2
:10076000940126D12BE095958795779567952A95E5
:10077000D1F7640D751D861D971D49805A80052C83
:10078000000C6608770832E0440C551C661C771C88
:100790003A95D1F7640D751D861D971D6E5F7F4FCD
:1007A0008F4F9F4F24E030E040E050E0DBD08D8D54
:1007B0009E8DAF8DB8A1821B930BA40BB50B9C0132
:1007C000AD01A0E5B3ECEAD097FD91C0660F771FAD
:1007D000881F991FA7019601A3D069017A01992763
:1007E000F7FC9A958F2D7E2D6D2D9B01AC0189D044
:1007F0009B01AC01AEEDBBE0D1D04B015C01A3E4A9
:10080000B3EEA7019601D6D0BC01992777FD90954C
:10081000892F4501BB2497FCB094AB2C680D791D42
:100820008A1D9B1D6153714F8F4F9F4F44E09595DB
:100830008795779567954A95D1F76C0D7D1D8E1D2F
:100840009F1D24E630E040E050E08CD0CA01B901A1
:10085000FBD16B017C0169A17AA18BA19CA1F4D190
:100860009B01AC01C701B60154D121E03EED42E449
:100870005EE3D9D29B01AC0160E070E080E89FE3C9
:10088000E3D020E03AE24DE257E46AD2AAD1062F43
:10089000602F2AE030E040E050E064D0005D129F1D
:1008A000000D1124AB8DBC8D5D960C935D97119757
:1008B000BC8FAB8F022F732FCA012A163B0641F75C
:1008C000BFEFE3EDF0E3B150E040F040E1F700C0EE
:1008D000000076CE8091C00087FF2DCE8091C600AB
:1008E00090ED980F9A3008F026CE819324CEA70180
:1008F000960116D069017A01CC0CDD1CEE1CFF1CA0
:100900006ECFDB018F939F9349D0BF91AF91A29F90
:10091000800D911DA39F900DB29F900D11240895FD
:10092000A1E21A2EAA1BBB1BFD010DC0AA1FBB1FF3
:10093000EE1FFF1FA217B307E407F50720F0A21B65
:10094000B30BE40BF50B661F771F881F991F1A94D2
:1009500069F760957095809590959B01AC01BD01FC
:10096000CF010895052E97FB16F400940FD057FD84
:1009700005D0D6DF07FC02D046F408C0509540955C
:10098000309521953F4F4F4F5F4F0895909580953B
:10099000709561957F4F8F4F9F4F089546D0A59FCB
:1009A000900DB49F900DA49F800D911D112408956A
:1009B000B7FFF4CFF3DF821B930B08952F923F9282
:1009C0004F925F926F927F928F929F92AF92BF925F
:1009D000CF92DF92EF92FF920F931F93CF93DF930B
:1009E000CDB7DEB7CA1BDB0B0FB6F894DEBF0FBE68
:1009F000CDBF19942A88398848885F846E847D84A5
:100A00008C849B84AA84B984C884DF80EE80FD80B6
:100A10000C811B81AA81B981CE0FD11D0FB6F8942C
:100A2000DEBF0FBECDBFED010895A29FB001B39F01
:100A3000C001A39F700D811D1124911DB29F700DE7
:100A4000811D1124911D08955058BB27AA270ED04F
:100A50004DC13ED130F043D120F031F49F3F11F42D
:100A60001EF433C10EF4E095E7FB29C1E92F4FD105
:100A700080F3BA17620773078407950718F071F4BB
:100A80009EF567C10EF4E0950B2EBA2FA02D0B0139
:100A9000B90190010C01CA01A0011124FF27591BC3
:100AA00099F0593F50F4503E68F11A16F040A22FC9
:100AB000232F342F4427585FF3CF4695379527953A
:100AC000A795F0405395C9F77EF41F16BA0B620B39
:100AD000730B840BBAF09150A1F0FF0FBB1F661F80
:100AE000771F881FC2F70EC0BA0F621F731F841FC3
:100AF00048F4879577956795B795F7959E3F08F0E9
:100B0000B3CF9395880F08F09927EE0F97958795A7
:100B100008950CD0EBC0E3D040F0DAD030F021F4EF
:100B20005F3F19F0CCC0511115C1CFC0F0D098F380
:100B30009923C9F35523B1F3951B550BBB27AA275E
:100B400062177307840738F09F5F5F4F220F331FD0
:100B5000441FAA1FA9F333D00E2E3AF0E0E830D09C
:100B600091505040E695001CCAF729D0FE2F27D09F
:100B7000660F771F881FBB1F261737074807AB076D
:100B8000B0E809F0BB0B802DBF01FF2793585F4FE2
:100B90002AF09E3F510568F092C0DCC05F3FECF345
:100BA000983EDCF3869577956795B795F7959F5FA7
:100BB000C9F7880F911D9695879597F90895E1E0FB
:100BC000660F771F881FBB1F621773078407BA075A
:100BD00020F0621B730B840BBA0BEE1F88F7E095B5
:100BE000089504D06894B111B5C0089598D088F0E4
:100BF0009F5790F0B92F9927B751A0F0D1F0660F09
:100C0000771F881F991F1AF0BA95C9F712C0B13023
:100C100081F09FD0B1E008959CC0672F782F88277E
:100C2000B85F39F0B93FCCF3869577956795B39562
:100C3000D9F73EF490958095709561957F4F8F4FD1
:100C40009F4F0895E89409C097FB3EF490958095D6
:100C5000709561957F4F8F4F9F4F9923A9F0F92F82
:100C600096E9BB279395F695879577956795B79500
:100C7000F111F8CFFAF4BB0F11F460FF1BC06F5FE6
:100C80007F4F8F4F9F4F16C0882311F096E911C0F8
:100C9000772321F09EE8872F762F05C0662371F019
:100CA00096E8862F70E060E02AF09A95660F771F2D
:100CB000881FDAF7880F9695879597F9089597F921
:100CC0009F6780E870E060E008959FEF80EC0895F2
:100CD00000240A941616170618060906089500241B
:100CE0000A9412161306140605060895092E039495
:100CF000000C11F4882352F0BB0F40F4BF2B11F409
:100D000060FF04C06F5F7F4F8F4F9F4F089557FD67
:100D10009058440F551F59F05F3F71F04795880F69
:100D200097FB991F61F09F3F79F087950895121600
:100D300013061406551FF2CF4695F1DF08C01616AC
:100D400017061806991FF1CF86957105610508945D
:100D50000895E894BB2766277727CB0197F9089574
:100D60000BD0C4CFB5DF28F0BADF18F0952309F017
:100D7000A6CFABCF1124EECFCADFA0F3959FD1F35E
:100D8000950F50E0551F629FF001729FBB27F00D39
:100D9000B11D639FAA27F00DB11DAA1F649F66278E
:100DA000B00DA11D661F829F2227B00DA11D621FDD
:100DB000739FB00DA11D621F839FA00D611D221F97
:100DC000749F3327A00D611D231F849F600D211D7B
:100DD000822F762F6A2F11249F5750408AF0E1F01E
:100DE00088234AF0EE0FFF1FBB1F661F771F881F67
:100DF00091505040A9F79E3F510570F060CFAACFA7
:100E00005F3FECF3983EDCF3869577956795B79551
:100E1000F795E7959F5FC1F7FE2B880F911D96957B
:100E2000879597F90895FA01EE0FFF1F3096210577
:100E3000310599F16115710561F48038BFE39B07B5
:100E400049F168949038810561F08038BFEF9B07C5
:100E500041F0992342F5FF3FE1053105210511F1EC
:100E6000E8940894E795D901AA2329F4AB2FBE2F63
:100E7000F85FD0F310C0FF5F70F4A695E0F7F73984
:100E800050F019F0FF3A38F49F779F930CD00F90F1
:100E900007FC905808953EF018CF60E070E080E8BD
:100EA0009FE308954FE79F775F934F933F932F936F
:100EB0009ED02F913F914F915F9152DF05C019F461
:100EC0000EF0FDCE46CF01CF2ADFC8F39638C0F72B
:100ED00007F80F92E8942BE33AEA48EB5FE74EDF1E
:100EE0000F920F920F924DB75EB70F92C0D0E4EE03
:100EF000F0E016D04F915F91EF91FF91E595EE1FD5
:100F0000FF1F49F0FE57E0684427EE0F441FFA9593
:100F1000E1F74195550B32D00F9007FE26C008959A
:100F2000DF93CF931F930F93FF92EF92DF927B019A
:100F30008C01689405C0DA2EEF011EDFFE01E894F3
:100F4000A5912591359145915591AEF3EF018EDD37
:100F5000FE019701A801DA9479F7DF90EF90FF90F6
:100F60000F911F91CF91DF9108959B01AC0160E03B
:100F700070E080E89FE3CDCDA2CEACC0D0DEE8F338
:100F80009923D9F3940F511DBBF39150504094F025
:100F900059F0882332F0660F771F881F9150504018
:100FA000C1F79E3F510544F7880F911D969587958F
:100FB00097F908955F3FACF0983E9CF0BB2786956B
:100FC00077956795B79508F4B1609395C1F7BB0F16
:100FD00058F711F460FFE8CF6F5F7F4F8F4F9F4F3F
:100FE000E3CFB8CE0EF076C070CE689468CE97DEB0
:100FF000C8F39923D1F3C6F3DF93CF931F930F93D5
:10100000FF92C92FDD2788232AF02197660F771FCB
:10101000881FDAF720E030E040E85FEB9FE3883993
:1010200020F0803E30F021968F770FDDECE0F1E08C
:1010300003C00BDDE9E3F1E073DF8B01BE01EC01DE
:10104000FB2E6F5771097595771F880B990BFCDD87
:1010500028E132E741E35FE38FDEAF2D9801AE0177
:10106000FF900F911F91CF91DF9100DD3FCEFA01EC
:10107000DC01AA0FBB1F9B01AC01BF5728F422273C
:101080003327442750781FC0B75188F4AB2F002472
:10109000469537952795011CA395D2F3002069F05A
:1010A000220F331F441FB395DAF30DD0CDCC61303E
:1010B0007105A0E88A07B94630F49B01AC016627A8
:1010C000772788279078309621F0208331834283D8
:1010D000538308959F3F31F0915020F48795779581
:1010E0006795B795880F911D9695879597F90895FF
:0410F000F894FFCFA2
:1010F40054656D70202020202020202020202020D6
:10110400416C74697475646520202020202020209F
:02111400C00019
:00000001FF
